:0400000001C12CC14D
:1000040030C1FCCFFBCF66C1F9CFF8CFF7CFF6CF25
:10001400F5CF30C1F3CFF2CFF1CFF0CFEFCFEECFAA
:10002400EDCF000001000F000A0001007370000012
:1000340000000000000000000000000000000000BC
:1000440000000000000000000000000000000000AC
:1000540000000000000000000000000000003178F3
:10006400000000000000000000000000000000008C
:10007400000000000000000000000000000000007C
:10008400000000000000000000000000000000006C
:1000940032780000000000000000000000000000B2
:1000A400000000000000000000000000000000004C
:1000B400000000000000000000000000000000003C
:1000C4000000347800000000000000000000000080
:1000D400000000000000000000000000000000001C
:1000E400000000000000000000000000000000000C
:1000F400000000004B700000000000000000000041
:1001040000000000000000000000000000000000EB
:1001140000000000000000000000000000000000DB
:100124000000000000004B69000000000000000017
:1001340000000000000000000000000000000000BB
:1001440000000000000000000000000000000000AB
:1001540000000000000000004B64000000000000EC
:10016400000000000000000000000000000000008B
:10017400000000000000000000000000000000007B
:10018400000000000000000000006D6F6465640062
:10019400010025642C0025352E32662C0025642CA4
:1001A40025352E32662C25352E3266200A0D002583
:1001B400642C25352E32662C25352E326620200AF5
:1001C4000D0001002D4E414E00494E4600002D4EBB
:1001D400414E00000100020026000600080028002D
:1001E400010080012E006201AE01300001005203C3
:1001F400920101005E03940101007303C601000033
:10020400F894EE27ECBBF1E0FBBFEBBFE5BF8DE05C
:10021400A2E0BB27ED938A95E9F780E094E0A0E69D
:10022400ED930197E9F7E8EDF1E085919591009759
:1002340061F0A591B59105901590BF01F00105906D
:100244000D920197E1F7FB01F0CFEFE5EDBFE4E09C
:10025400EEBFC0E6D1E073C099D6F20131962F010A
:1002640001C094D6F30131963F01E991EFBFF991B2
:10027400E9911895AA93EA93FA93EFB7EA9376DB98
:100284001BB10CB1E12FEC71E9F4E0917003EF5F65
:10029400E0937003E150F0E0E859FC4F0083A09133
:1002A4007003A83019F4E0E0E0937003A0917203A6
:1002B400AF5FA0937203A83029F4E0E0E0937203E7
:1002C400689420F809911991E991EFBFF991E991A6
:1002D400A99118956A937A93AA93BA93EA93FA9395
:1002E400EFB7EA93ECB5FDB556D6E0936003F0930F
:1002F40061036093620370936303E0E0F0E0FDBD8B
:10030400ECBDA4E6B3E0F1DAEF5FFF4F6F4F7F4F30
:10031400F1DAE991EFBFF991E991B991A991799154
:1003240069911895AA93E881E7B985E28A95F1F76E
:10033400369A349BFECF349AE4B1F5B183C3E8E036
:10034400E7BBE0E0E8BBE4BBE5BBE1BBE2BBE3BF8A
:10035400E2BFEFBDE2ECEEBDE0E0EDBDECBDE7BD1C
:10036400E6BDEBBDEABDE9BDE8BDE2BDEBE6E5BD3A
:10037400E0E0E4BDE3E3E3BDE0E2E9BFEBB7E06C5A
:10038400EBBFE5E0E5BFE0ECEABFE0E0EBB9E8E9AC
:10039400EAB9E6E8E0BDE0E0E0BDE7E4E9B9E0E8B9
:1003A400E8B9E0E0E7B9E4E8E6B9E0E0E0BFEDB9D8
:1003B400E6BF7894A4E6B0E028D820FE1CC0E894F8
:1003C40020F8CBD0E0935C03F0935D03A0915C0331
:1003D400B0915D03C3DA34F4A0915E03B0915F037E
:1003E40014970CF008C0E0915C03F0915D03E09376
:1003F4005E03F0935F03E0915E03F0915F03E130ED
:10040400A0E0FA0711F435D10BC0E230A0E0FA07FE
:1004140011F464D105C0E330A0E0FA0709F48ED1E9
:10042400C9CFFFCFBBD5BDD599D8E0936001F09378
:1004340061016093620170936301B8D5D501BFD5A2
:10044400E0936801F093690160936A0170936B0112
:10045400F501B9D5ADECBCEC8CEC9DE3D6D8E093BA
:100464007801F093790160937A0170937B01D6014E
:10047400A6D5E0936C01F0936D0160936E017093C7
:100484006F01A0916401B091650180916601909122
:1004940067018CD563D89AD59CD505D9E0937C01A6
:1004A400F0937D0160937E0170937F01A0918001A0
:1004B400B091810184D5E0937001F0937101609350
:1004C400720170937301E0916C01F0916D01609180
:1004D4006E0170916F01A0916801B09169018091E2
:1004E4006A0190916B0141D8A0917001B0917101A2
:1004F400809172019091730138D8E0937401F09364
:100504007501609376017093770168D570D510D921
:1005140010F06DD507C062D56FD50AD911F008F077
:1005240009C06AD5E0937401F09375016093760174
:10053400709377013BD5E0936401F0936501609378
:10054400660170936701E0917401F0917501609107
:100554007601709177012896089553D552D557D5D1
:1005640018970CF04CC058D55DD5A8E6B3E072D00E
:10057400309709F440C0E8E6F3E054D54DD5DF01E7
:1005840075D150D5A8E6B3E071D1DF013AD0AAE91C
:10059400B1E09CD1E0933E03F0933F0346D519F1BB
:1005A4004AD5309719F44CD509D11BC0E430A0E0EA
:1005B400FA0719F445D5F2D014C0E530A0E0FA07E3
:1005C40019F43ED5EFD00DC0E630A0E0FA0719F4D7
:1005D40037D5ECD006C0E730A0E0FA0711F430D5E7
:1005E400F5D00FD502C021D551F0E0E0E0933E03F1
:1005F400E0933F0304C0A0E4B3E027D5B0CF1BD5FC
:10060400089529D5E0E0E0934203E093430326D51F
:1006140025D5E881F981A0914403B0914503EA17F7
:10062400FB07B4F0A2E4B3E010D53197E656FE4FD1
:100634000F01E0914403F0914503AC81BD81AE0FFD
:10064400BF1FEC91D001EC93A4E4B3E0FED4E1CF5E
:100654002696089500D5EA81FB81E4D4EA81FB81E2
:10066400E1D403D503D1AE2F18D1A0E09DD8F0E09A
:10067400EFC0E0916003F0916103609162037091B7
:10068400630339D7A0E0B0E081E698E40CD8E093A6
:100694004603F09347036093480370934903E8D4F7
:1006A40092D43CD9A0914603B0914703809148036A
:1006B40090914903E2D4E0914603F091470360919D
:1006C400480370914903FDD429F404D5E1EAF1E02B
:1006D40036D501C050D522D9A0D50895F201662798
:1006E400772709D7A6EABAEA86EA92E49AD5E0938C
:1006F4004A03F0934B0360934C0370934D03B8D4B7
:1007040062D40CD9A0914A03B0914B0380914C035D
:1007140090914D03B2D4E0914A03F0914B03609160
:100724004C0370914D03CDD429F4D4D4E3EBF1E020
:1007340006D501C020D5F2D870D50895F3016627F7
:100744007727D9D6A3EBBAEA86E292E46AD5E09396
:100754004E03F0934F03609350037093510388D476
:1007640032D4DCD8A0914E03B0914F038091500352
:100774009091510382D4E0914E03F0914F03609124
:100784005003709151039DD429F4A4D4E3EBF1E018
:10079400D6D401C0F0D4C2D840D508955CD4A88082
:1007A400B98017C058D4C880D98013C054D4E88104
:1007B400F981E0938001F09381010BC04CD4E8816E
:1007C400F981E0935603F093570303C044D488801F
:1007D400998022960895A7D87B816A81F981E8815E
:1007E40077FB770F67FD7160972F9E5781F078F044
:1007F400983190F4AA27BB27882708948795B79542
:10080400A7959A95D1F7EA23FB23682305C0E894BA
:100814007727EE27FF2766276F77769508F46068B9
:1008240077F9A991B99189919991EA17FB0768071A
:10083400790797FB0895B2D3CEDF6BD811F4FFD4B8
:1008440007C0EEF7FCD4A0E0B0E080E89FE386D6D2
:100854002496089500D4E991F991A991B991CD0113
:1008640005900D920020E1F7FC010895F4D3A991BD
:10087400B991EE27FF276D91662311F03196FBCFD6
:100884000895E9D3AA27BB27E991F991059000209F
:1008940011F01196FBCFFD010895AA9366277727DF
:1008A4008991E991F991A991B991882349F08A959F
:1008B4006D917191671721F46623B9F7EE270895B6
:1008C400671BE1F3E1E008F4E2500895C4D3B98171
:1008D400A881EC918A2FAE2F4ED3A82FEE2311F0CE
:1008E4001196F7CFE894EC91ED3211F4689402C0BC
:1008F400EB3209F4119666277727EC918A2FAE2FF5
:1009040031D3A82FEE2379F0FB01660F771F660F12
:10091400771F6E0F7F1F660F771FED91FF27E05340
:100924006E0F7F1FEACFFB011EF4E095F095319620
:100934002296089586D4E0E0EA83EFE3EB8316D8A9
:10094400EB85FC85EF3FAFEFFA0729F480D4A8ECE0
:10095400B1E080DF6FC0EF3FAFE7FA0729F477D447
:10096400A9ECB1E077DF66C0AC85AA2332F472D477
:1009740056D575D479D4EDE2EC93A885A73010F060
:10098400E6E0E887188576D421F078D47CD47ED448
:10099400FACF81D4EAD563D410E0E0E0F0E060E877
:1009A4007FE374D478D4C4D660F068D47DD46ED494
:1009B4001F5F173228F04BD4ADECB1E04BDF3AC0E7
:1009C400F1CF103021F450D4E0E3EC9316C052D4AC
:1009D400A1F054D458D46BD4F9D22DDF57D45BD4BE
:1009E40062D650D50E2F40D468D448D4ECD20DD65C
:1009F4006AD4A3D7B3D533D4EACFE885E030B1F0D5
:100A040033D4EEE2EC93E885E150E887EF5F71F0D0
:100A14005AD44AD424D41ED435D50E2F25D44DD43B
:100A240052D4D1D28AD79AD51AD4EDCFAE81BF8110
:100A3400E0E0EC93A2D72D960895AA935D9BFECF98
:100A4400E881ECB92196089506D3AA81F6DFA8813E
:100A5400B981FBD223960895F4D3E0E8EA83EFE367
:100A6400EB8382D7EE85FF85EF3FAFEFFA0739F4CA
:100A7400E885F985D7D2A2EDB1E0ECDE83C0EF3F83
:100A8400AFE7FA0731F424D4CDD2A3EDB1E0E2DE2E
:100A940079C0AB85A73010F0E6E0EB871B85EAD37D
:100AA40019F019D41DD4FBCF20D454D721F430E04D
:100AB40012D416D421C03B851DD409F008F40AC011
:100AC4000AD40ED417D428F01CD4DDD31FD43F5F2E
:100AD400F9CF09C00FD428F414D4E6D317D4315075
:100AE400F9CFF9D3FDD301D4E2D310D403D420F049
:100AF40008D4C9D30BD43F5F10E0EB85E11710F1A4
:100B04000AD4C1D3D4D362D296DEEAD34AD2F9D37B
:100B1400CAD5B8D40E2F04D4E02FE05DEC93E02FB7
:100B2400FF2766277727E7D4F6D36FD5EAD305D70F
:100B340015D5ECD3E12F1F5FE030F9F6F1D3EEE2E7
:100B4400EC93DBCFF4D33197AA85A08330302CF417
:100B54003195A885B985EDE203C0A885B985EBE296
:100B6400EC93E5D3E4D3E8D35DD6E05DDB01EC930D
:100B7400DED3E2D381D6E05DDB01EC93A885B985B1
:100B8400E0E0EC93F8D66096089565D2EF9761970C
:100B9400E9D610E0FE01E85AFF4F0190F081E02D04
:100BA400E887F987FE01EA5AFF4F0190F081E02DB2
:100BB400EE83FF835AD2E0E0F0E0ED93FC93DE0194
:100BC400A45ABF4F42D23197E4912E2FE03009F45A
:100BD400A5C1E12FE03031F4253211F411E001C058
:100BE400B0D39BC1E130B9F4253211F4AAD394C136
:100BF40012E0E0E0ED8B00E02D3211F401E08DC154
:100C04002B3219F4EBE2ED8B88C1203219F4E0E2C7
:100C1400ED8B83C102C0E23039F450E013E020339D
:100C240011F400687AC102C0E33091F4203310F06B
:100C34002A3308F007C0AAE05A9F502DE22FE05350
:100C44005E0F6BC140E02E3211F414E066C10FC098
:100C5400E43099F4203310F02A3308F008C000621D
:100C6400AAE04A9F402DE22FE0534E0F56C12C3686
:100C740019F4026015E051C103C0E53009F04DC11B
:100C8400E22FE33639F464D36AD362D3A481AA93FE
:100C94006DD342C1E53411F0E53609F402C0E636FD
:100CA400A9F56AD36ED31BD673D377D3AD85AA23A4
:100CB40032F0AD89AB3241F0A03261F012C06FD393
:100CC400AED366D3EDE2ED8B07FF04C0ED89EA9362
:100CD4004DD307C0EE85FF85319666D33197AD8934
:100CE400A08305FF46E0263639F459D317D64A9334
:100CF400AB89BC891FDE07C052D310D64A932A930E
:100D0400AC89BD89A9DE38D352D316C0E33721F4A8
:100D140044D352D34CD309C0E03799F43ED34CD3D7
:100D2400AE85BF85AEDD1E2F08600F77403011F011
:100D3400411708F001C0142F40E0E0E0EC8B30E0F4
:100D440061C0E43611F0E93611F4046002C0E537FD
:100D540091F4EAE0EC8B01FF07C0E0E0FAEC6AE909
:100D64007BE32ED31AE01FC0E0E1F7E260E070E01D
:100D740027D315E018C0E83511F4086003C0E8373C
:100D840009F0CAC0E0E1EC8B01FF07C0E0E0F0E04D
:100D940060E070E115D318E006C0E0E0F0E160E047
:100DA40070E00ED314E0403011F00F7701C041E041
:100DB40001FF05C0F2D2E5D2149691D50DC002FF11
:100DC40006C0EBD2DED2149686D5E4D405C0E5D2B3
:100DD400D8D2149680D5DFD0EA87FB876C877D87CD
:100DE40002FF0FC0AD85AA232AF4D9D2C5D4D0D22C
:100DF400EDE2ED8BED89E03019F01F5F4F5F01C02C
:100E04000B7F342F00FD13C0151710F4351708F0AD
:100E14000EC007FF08C002FF04C00B7F2D891150CC
:100E240001C020E301C020E28CD25150EDCF141751
:100E340080F4006102FF05C0C8D209F0515011507E
:100E44004150E0E3EA9392D2503009F051504150BE
:100E5400EECF312FEC89E030A9F4303091F003FF6C
:100E640005C0EE85FF8525919FD205C0AE85BF855F
:100E74002D91AE87BF8765D2503009F05150315063
:100E8400ECCF41C0B4D2D3D42E2F2A3030F003FF9C
:100E940002C0295C01C0295A01C0205D04FD1DC0A7
:100EA400213348F4ADD2A130E0E0BE07E0E08E0784
:100EB400E0E09E0709F40BC0431740F4531710F009
:100EC40000FF01C00EC020E207FF07C020E300615D
:100ED40002FF03C07AD209F0515033D2503009F0E6
:100EE4005150315084D2D4D453D2EC8989D2FF27C3
:100EF400662777279CD464D2E889F9896A897B8933
:100F040029D509F0BFCF00FF07C0503029F0515058
:100F1400E0E2EA932BD2F9CF10E051CEA6D0DBD495
:100F240028D5EF966F960895FF92F82E26971ED532
:100F3400DE0114961DD48D01E0E0EC83ED83EE8395
:100F4400EF83DE01189614D4C6D46CD01A930A9396
:100F5400E6E2F5E067D0DE01189617DE0ED5289696
:100F6400FF900895AA93E1E0F991F03310F0FA3379
:100F740008F0EE270895AA93E1E0F991F03229F000
:100F8400F93010F0FE3008F0EE270895EA93FA9352
:100F9400EFB7EA930895662777270895C4D4B4D4A5
:100FA4000895EC81FD816E817F810895E091600157
:100FB400F091610160916201709163010895EFD332
:100FC400B9D423D30895E6D396D20895DF01CB0193
:100FD4000895EDECFCEC6CEC7DE30895A0917401B4
:100FE400B091750180917601909177010895E0E0C8
:100FF400F0E06FE773E40895E0E0F0E060E271E4AC
:101004000895E0E0E0934003E09341030895A09144
:101014004003B09141030895FADFE2E3EAD3E255D5
:10102400FE4F0895FA93EA930895E0913E03F091F8
:101034003F0330970895E0914003F09141030895F0
:10104400A0913E03B0913F030895ED91FD91319637
:10105400FE93EE930895BA93AA930895EA81FB81CF
:10106400E0934403F09345030895AE81BF8108954E
:10107400E0915603F09157030895D4D9E0935803AF
:10108400F093590360935A0370935B03FBD1E3BD60
:101094004424552466247724E0E0E0936403E09339
:1010A4006503E0936603E0936703E6E9F1E0BADFE2
:1010B400DFDF70D333D484E037DF2696EAE9F1E04A
:1010C400B1CF2CD484E030DF2696E1E0F0E0E815DF
:1010D400F9050895A0E026D95EDFE0938201F0933C
:1010E40083016093840170938501A5E0B0E080E002
:1010F40090E085D300D26ADFE0E0F0EC6FE774E4BF
:10110400D2D2E0938A01F0938B0160938C017093A7
:101114008D01A0918A01B0918B0180918C019091F5
:101124008D01EDECFCEC6CE47DE3BDD2E0938E012B
:10113400F0938F016093900170939101089572DF91
:10114400E0918201F09183016091840170918501A5
:10115400E5D3E0918A01F0918B0160918C0170914B
:101164008D01DCD3E0918E01F0918F0160919001AB
:10117400709191010895A1E0D5D80DDFE093860127
:10118400F09387016093880170938901A5E0B0E032
:1011940080E090E034D3AFD119DFE0E0F0EC6FE70A
:1011A40074E481D2E0939201F093930160939401EB
:1011B40070939501A0919201B09193018091940153
:1011C40090919501EDECFCEC6CE47DE36CD2E09342
:1011D4009601F09397016093980170939901E3EB62
:1011E400F1E020DFE0918601F091870160918801B0
:1011F4007091890193D3E0919201F09193016091F0
:101204009401709195018AD3E0919601F091970130
:10121400609198017091990108958CE085DE2E9675
:101224000895F3D1DF01CB01E0915203F091530310
:1012340060915403709155035ED135D208955FD304
:10124400089509DF2497E0E0E883E9830895EE81B7
:10125400FF81E8CEE985FA856B857C850895E98769
:10126400FA876B877C87089500DF1196AE83BF836E
:1012740011970895E12F1150E0300895AA81BB81A0
:101284008C819D810895A5DEC0D10895EA83FB83F6
:101294006C837D830895EA81FB816C817D81A985BE
:1012A400BA858B859C850895A7DEAFD10895A0E00B
:1012B400B0E080E09FE359D10895E02FE05DEC9326
:1012C400E02FF0E00895A985BA858B859C85089563
:1012D400E885F9850895AC81BD818E819F81E4CF35
:1012E400EC83FD836E837F830895EC85FD856E8595
:1012F4007F85089556DEAC85BD858E859F8518D281
:101304000895AC85BD858E859F850895EC87FD87FE
:101314006E877F870895AC81BD818E819F810895FA
:10132400A885B9851196A887B98711970895D0DF44
:101334003196E887F98708953197BF01A32FEAE032
:1013440008952A93AF81B885E985FA8509950895AA
:10135400FE01E65AFF4F0190F081E02D0895349785
:10136400DE01A65ABF4FED93FC930895AF81B88573
:10137400E985FA8509950895FE017696EE87FF873B
:101384000895DE01A65ABF4F0D90BC91A02D08957B
:10139400EA87FB876C877D870895DADFE0CFEA85EB
:1013A400FB856C857D850895EE87FF870895AE855E
:1013B400BF855CDA1E2F0895E4DF14968CD2F4CF37
:1013C400E88BF98B6A8B7B8B08950B7FED89EA930D
:1013D400DE01A95ABF4F0D90BC91A02DFE01E75A22
:1013E400FF4F0190F081E02D099550300895E88970
:1013F400F9896A897B89AA85BB858C859D85089531
:10140400A889B9898A899B890895109639F0A89585
:101414008DEC9AE00197F1F71197C9F70895309789
:101424006040704009F070580895552342F45038D4
:1014340011F4E0FF04C03196691F791F6BF050E886
:10144400572711F45F93CFC05F3F31F0660F000C54
:1014540057956795752F08955F9300200AF0CFC0C4
:10146400C8C050E8192E1522880F991F9527550FCB
:10147400879550E8072E0522660F771F7527550FAD
:1014840067950895689401C0E8945F93F2DF70381B
:1014940018F07F3F08F4A7C056E1571BAAF45195F2
:1014A40058300EF4593030F0EFEFFFEF6FEF7FE775
:1014B40077F91AC077275523B9F0EE0FFF1F661F7F
:1014C400771F5A95D1F710C07727583028F0EF2F9F
:1014D400F62F672F5850F9CF552331F0769567953D
:1014E400F795E7955A95D1F700200AF445D15F9115
:1014F4000895689401C0E894309760407040B1F05A
:10150400002426F0772312F4009436D1172E7EE1BE
:10151400112032F07A95EE0FFF1F661F111CF9CFD0
:10152400EF2FF62F612D5F938ADF5F9108954F931C
:10153400AF01FD01DA01AB01BC01CA01402D012C50
:10154400142E4F910895EA0FFB1F681F0895E0952C
:10155400F0956095EF5FFF4F6F4F08955F9381DFC4
:10156400903871F150E8152604C05F937ADF903803
:1015740039F1703821F1572F591B2BF112F4D7DFB1
:10158400FACF583118F0AA27BB278827583028F0FB
:10159400AB2FB82F88275850F9CF552329F08695BB
:1015A400B795A7955A95D9F7502D512572F0CBDFF1
:1015B40038F46795F795E795739513F420C0B7DF72
:1015C4003EDF5F910895D8F7FBCFEA1BFB0B680B56
:1015D40051F010F40094BBDF662392F3EE0FFF1F6B
:1015E400661F7A95CBF7EE27FF27662777275F914B
:1015F4000895EFEFFFEF6FE77FEF5F910895EFEF4F
:10160400FFEF6FE77FE75F9108955F932ADF7038FC
:1016140051F3903841F301240894791F23F41CF307
:1016240000203AF3ECCF0F921F932F933F934F93E5
:10163400112722279927689FA0018F9F302D410DE4
:10164400591F6B9F300D411D591F8E9F27D0BF9F7F
:1016540025D06A9F23D0BE9F1DD0AF9F1BD0AE9FC5
:10166400110D291F391F491F591FE32FF42F652F0F
:10167400522F4F913F912F911F910F9066232AF083
:10168400550FEE1FFF1F661F02C073954BF2CDDE90
:101694005F910895100D211D391F02C0200D311DC9
:1016A400491F591F08955F93DCDE703821F411201F
:1016B4000AF49FCFA4CF903809F495CF012408945D
:1016C400970B1BF4D4F30020F3CF792F1F932F93A0
:1016D4003F934F931124112722273327442755275B
:1016E40090E2AE17BF078607410730F0AE1BBF0B71
:1016F400860B410B089401C08894551F221F331F89
:10170400111CAA1FBB1F881F441F9A9551F7F9018A
:10171400612D4F913F912F911F91662332F0550F08
:10172400EE1FFF1F661F7A9543F27FDE5F910895D7
:1017340099239AF0772342F0971748F029F4AE17CB
:10174400BF07860720F031F0989488940895989400
:10175400089408951894889408957723C2F79717E6
:1017640098F3A9F7EA17FB07680788F399F3ECCF16
:101774000024AF0DB01D0895F09560957095E19526
:10178400FF4F6F4F7F4F0895FE2FFF0FFF0B6F2FFB
:101794007F2F08956F2F660F660B762F08958B2F7A
:1017A400880F880B982F0895EA17E1E009F0EE27D7
:1017B40008957A9F702D6B9F700DF89F700DE99FAF
:1017C400700D6A9F602D710DFB9F600D711DE89F68
:1017D400600D711D8827FA9FF02D610D781FEB9F16
:1017E400F00D611D781FEA9FE02DF10D681F781F31
:1017F40008956E2F6A9FF0016B9FF00D089558D0E5
:10180400D8DF0EF4B9DF0895002498E0AA0F001C75
:101814000E1A10F40E0E01C0A1609A95B9F7EA2FC2
:10182400A02D089539D0F0DF0EF4E19508953F938B
:101834004F935F93002411244427552730E2AA0FC5
:10184400BB1F881F991F001C111C441F551F0E1A13
:101854001F0A460B570B28F40E0E1F1E461F571F58
:1018640001C0A1603A9559F7FD01BC01D001CA013C
:101874005F914F913F910895E894A7FF02C0A1950D
:101884006894E7FDE195C0DFEA2F0EF4E195089531
:10189400CEDFFD01BC010895E894E7FF02C0E195A5
:1018A4006894A7FF04C0A19500F8039400FA089572
:1018B400E89477FF02C060DF689497FF0BC00024B0
:1018C400A095B095809590951196801D901D00F877
:1018D400039400FA0895ED91FC9111970895ED9108
:1018E400FD916D917C9113970895ED91FD916D910A
:1018F4007D9108957E936E93FE93EE930895E8810F
:10190400F9816A817B810895A881B9818A819B814B
:101914000895E883F9836A837B8308957A936A93AD
:10192400FA93EA9308959A938A93BA93AA9308959B
:10193400689401C0E89401D0DFDD182E862F612D54
:10194400192E972F712D1B2EBF2FF12D1A2EAE2F6E
:10195400E12D0895309760407040089500240A16E0
:101964000B0608955A934A933A932A931A930A9327
:1019740008955D814C813B812A81198108810895F4
:00000001FF
